:100000000C942A000C9447000C9447000C94470071
:100010000C9447000C9447000C9447000C945B1E12
:100020000C9447000C9447000C9447000C94470034
:100030000C9447000C9447000C9447000C94470024
:100040000C9447000C9447000C9447000C94470014
:100050000C94470011241FBECFE5D8E0DEBFCDBF12
:1000600011E0A0E6B0E0ECEBFDE502C005900D92DA
:10007000AE37B107D9F717E0AEE7B1E001C01D9286
:10008000A93FB107E1F70E949C2D0C94DC2E0C9443
:100090000000EF92FF920F931F937B018C0120E0F1
:1000A00030E040E05FE40E94490388238CF0C801FF
:1000B000B70120E030E040E05FE40E94C1010E940F
:1000C000A9039B01AC01205030404040504806C07D
:1000D000C801B7010E94A9039B01AC01B901CA0183
:1000E0001F910F91FF90EF900895A0E0B0E0EBE733
:1000F000F0E00C94932EDC012B01FA019C919230DC
:1001000008F439C1EB018881823008F433C194309E
:1001100069F4843009F02FC111969C91119789815F
:10012000981709F428C1A4E7B1E025C1843009F487
:1001300021C18230A9F4923009F01DC19A01AD01AC
:1001400088E0EA010990AE01E90109929E0181501F
:10015000C1F7E201898111969C918923818308C1AD
:10016000923009F407C112962D903C901397EB0141
:100170008A819B811496AD90BD90CD90DC901797AD
:10018000EC80FD800E811F819101281B390BB90184
:1001900037FF04C066277727621B730B6032710537
:1001A0000CF061C0121613066CF537014801062EDB
:1001B00004C096948794779467940A94D2F721E0C8
:1001C00030E040E050E004C0220F331F441F551FB1
:1001D0006A95D2F721503040404050402E213F21B7
:1001E00040235123211531054105510521F021E01E
:1001F00030E040E050E079018A01E628F72808293C
:1002000019293CC0232BD1F1260E371E350146019A
:10021000062E04C096948794779467940A94D2F734
:1002200021E030E040E050E004C0220F331F441FC3
:10023000551F6A95D2F721503040404050402A2146
:100240003B214C215D21211531054105510521F04E
:1002500021E030E040E050E059016A01A628B728CB
:10026000C828D9280BC0821593052CF01C01AA249C
:10027000BB24650103C0EE24FF24870111969C91E5
:10028000D20111968C91981709F445C0992339F041
:10029000A80197012A193B094C095D0906C0A6016E
:1002A00095012E193F09400B510B57FD08C01182D3
:1002B0003382228224833583468357831DC081E0A5
:1002C00081833382228288279927DC01821B930B4A
:1002D000A40BB50B84839583A683B7830DC0220F2F
:1002E000331F441F551F24833583468357838281E0
:1002F000938101979383828324813581468157813D
:10030000DA01C9010197A109B1098F5F9F4FAF4F72
:10031000BF4328F30BC0918333822282EA0CFB1C7B
:100320000C1D1D1DE482F5820683178383E0808304
:10033000248135814681578157FF1AC0C901AA27F8
:1003400097FDA095BA2F81709070A070B0705695EF
:10035000479537952795822B932BA42BB52B848318
:100360009583A683B7838281938101969383828349
:10037000DF0101C0D201CD01CDB7DEB7E2E10C94BF
:10038000AF2EA0E2B0E0E7ECF1E00C949F2E698381
:100390007A838B839C832D833E834F835887E9E048
:1003A000EE2EF12CEC0EFD1ECE010196B7010E943F
:1003B000D2048E010F5E1F4FCE010596B8010E9438
:1003C000D2048A8991E089278A8BC701B801AE01DE
:1003D000475E5F4F0E9475000E94FD03A096E6E015
:1003E0000C94BB2EA0E2B0E0E8EFF1E00C949F2E5D
:1003F00069837A838B839C832D833E834F835887C5
:10040000F9E0EF2EF12CEC0EFD1ECE010196B701A6
:100410000E94D2048E010F5E1F4FCE010596B801D7
:100420000E94D204C701B801AE01475E5F4F0E942F
:1004300075000E94FD03A096E6E00C94BB2EA0E29E
:10044000B0E0E5E2F2E00C94932E69837A838B832B
:100450009C832D833E834F835887CE010196BE0136
:10046000675F7F4F0E94D204CE010596BE016F5E8A
:100470007F4F0E94D2049985923088F0898982301A
:10048000C8F0943019F4823051F404C0843029F457
:10049000923081F484E791E0C6C0923049F420E0C4
:1004A0009A858A89981321E02A87CE010996BBC0D4
:1004B000823049F420E09A858A89981321E02A8BBA
:1004C000CE014196B0C02D843E844F8458886D88FB
:1004D0007E888F88988CEE24FF248701AA24BB2471
:1004E000650140E050E060E070E0E0E0F0E0C10174
:1004F00081709070892BE9F0E60CF71C081D191D1E
:100500009A01AB012A0D3B1D4C1D5D1D80E090E062
:10051000A0E0B0E0E614F7040805190520F481E036
:1005200090E0A0E0B0E0BA01A901480F591F6A1F8E
:100530007B1FAA0CBB1CCC1CDD1C97FE08C081E0F5
:1005400090E0A0E0B0E0A82AB92ACA2ADB2A3196B6
:10055000E032F10549F0660C771C881C991C569412
:10056000479437942794C3CFFA85EA892B893C892D
:100570008B859C85280F391F2E5F3F4F17C0CA01FE
:1005800081709070892B61F016950795F794E79428
:1005900080E090E0A0E0B0E8E82AF92A0A2B1B2BC3
:1005A00076956795579547952F5F3F4F77FDE7CF36
:1005B0000CC0440F551F661F771F17FD4160EE0CDE
:1005C000FF1C001F111F21503040403090E05907A0
:1005D00090E0690790E4790760F32B8F3C8FDB0193
:1005E000CA018F779070A070B07080349105A1051A
:1005F000B10561F447FD0AC0E114F10401051105DC
:1006000029F0405C5F4F6F4F7F4F40781A8EFE1786
:1006100011F081E08A8F4D8F5E8F6F8F78A383E01A
:10062000898FCE0149960E94FD03A096E2E10C94C9
:10063000AF2EA8E1B0E0EFE1F3E00C949F2E6983C8
:100640007A838B839C832D833E834F83588789E0F5
:10065000E82EF12CEC0EFD1ECE010196B7010E9492
:10066000D2048E010F5E1F4FCE010596B8010E9485
:10067000D2048985823040F08989823028F0C70110
:10068000B8010E944A0501C08FEF6896E6E00C941D
:10069000BB2EA8E1B0E0EFE4F3E00C949F2E698359
:1006A0007A838B839C832D833E834F83588789E095
:1006B000E82EF12CEC0EFD1ECE010196B7010E9432
:1006C000D2048E010F5E1F4FCE010596B8010E9425
:1006D000D2048985823040F08989823028F0C701B0
:1006E000B8010E944A0501C08FEF6896E6E00C94BD
:1006F000BB2EA8E1B0E0EFE7F3E00C949F2E6983F6
:100700007A838B839C832D833E834F83588789E034
:10071000E82EF12CEC0EFD1ECE010196B7010E94D1
:10072000D2048E010F5E1F4FCE010596B8010E94C4
:10073000D2048985823040F08989823028F0C7014F
:10074000B8010E944A0501C081E06896E6E00C9479
:10075000BB2EACE0B0E0EFEAF3E00C94A32E69838B
:100760007A838B839C83CE010196BE016B5F7F4FA2
:100770000E94D2048D81823061F1823050F1843048
:1007800021F48E81882351F12EC02F81388537FDC9
:1007900020C06E812F3131051CF06623F9F023C093
:1007A0008EE190E0821B930B29853A854B855C8511
:1007B00004C056954795379527958A95D2F76623B5
:1007C000B1F050954095309521953F4F4F4F5F4F79
:1007D0000EC020E030E040E050E009C02FEF3FEFD6
:1007E0004FEF5FE704C020E030E040E050E8B9019F
:1007F000CA012C96E2E00C94BF2EDF92EF92FF929A
:100800000F931F93FC01E480F58006811781D1804E
:100810008081823048F480E090E0A0E1B0E0E82AF6
:10082000F92A0A2B1B2BA5C0843009F49FC0823003
:1008300021F4EE24FF24870105C0E114F104010531
:10084000110519F4E0E0F0E096C0628173819FEF3A
:10085000623879070CF05BC022E83FEF261B370BAC
:100860002A3131052CF020E030E040E050E02AC091
:10087000B801A701022E04C0769567955795479554
:100880000A94D2F781E090E0A0E0B0E004C0880FC5
:10089000991FAA1FBB1F2A95D2F70197A109B10979
:1008A0008E219F21A023B1230097A105B10521F03E
:1008B00081E090E0A0E0B0E09A01AB01282B392B59
:1008C0004A2B5B2BDA01C9018F779070A070B07052
:1008D00080349105A105B10539F427FF09C0205CDA
:1008E0003F4F4F4F5F4F04C0215C3F4F4F4F5F4F13
:1008F000E0E0F0E02030A0E03A07A0E04A07A0E402
:100900005A0710F0E1E0F0E079018A0127C0603871
:10091000710564F5FB01E158FF4FD801C7018F77DE
:100920009070A070B07080349105A105B10539F4C4
:10093000E7FE0DC080E490E0A0E0B0E004C08FE3EB
:1009400090E0A0E0B0E0E80EF91E0A1F1B1F17FFA1
:1009500005C016950795F794E794319687E01695AC
:100960000795F794E7948A95D1F705C0EE24FF2404
:100970008701EFEFF0E06E2F679566276795902F60
:100980009F77D794DD24D7948E2F8695492F462BB9
:10099000582F5D29B701CA011F910F91FF90EF9069
:1009A000DF900895FC01DB01408151812281622F9B
:1009B0006F7770E0221F2227221F9381892F880FD3
:1009C000822B282F30E0991F9927991F11969C930D
:1009D000119721153105A9F54115510561057105DD
:1009E00011F482E037C082E89FEF13969C938E93B8
:1009F00012979A01AB0167E0220F331F441F551F66
:100A00006A95D1F783E08C930DC0220F331F441FEA
:100A1000551F12968D919C911397019713969C9355
:100A20008E931297203080E0380780E0480780E4FA
:100A3000580758F314962D933D934D935C93179755
:100A400008952F3F310579F4411551056105710570
:100A500019F484E08C93089564FF03C081E08C93C3
:100A600012C01C9210C02F57304013963C932E9307
:100A7000129783E08C9387E0440F551F661F771F02
:100A80008A95D1F7706414964D935D936D937C9322
:100A9000179708951F93DC01FB019C91923008F495
:100AA00047C08081823008F443C0943051F41196DD
:100AB0001C91843099F58181682F70E0611B710968
:100AC0003FC0843021F0923031F48230B9F181811D
:100AD000882389F12DC011961C9111978230F1F075
:100AE00081811817D9F412962D913C911397828128
:100AF00093818217930794F028173907BCF0149656
:100B00008D919D910D90BC91A02D248135814681C0
:100B10005781281739074A075B0718F4112341F05A
:100B20000AC082179307A407B50740F4112319F0F0
:100B300061E070E005C06FEF7FEF02C060E070E041
:100B4000CB011F9108950F931F93DF93CF9300D094
:100B500000D0CDB7DEB769837A838B839C83AAE20A
:100B6000B0E0EAE2F0E0808188618C93A0E4B0E03C
:100B7000E0E4F0E0808186688C9309E210E08981EE
:100B80009A81AB81BC81880F991FAA1FBB1F880F58
:100B9000991FAA1FBB1F880F991FAA1FBB1F880F71
:100BA000991FAA1FBB1F9C01AD0180E092E1AAE73B
:100BB000B0E0BC01CD010E94562EDA01C90181507E
:100BC000F801808300E410E089819A81AB81BC81C7
:100BD000880F991FAA1FBB1F880F991FAA1FBB1F31
:100BE000880F991FAA1FBB1F880F991FAA1FBB1F21
:100BF0009C01AD0180E092E1AAE7B0E0BC01CD012B
:100C00000E94562EDA01C9010197A109B109892F65
:100C10009A2FAB2FBB27F80180830F900F900F9076
:100C20000F90CF91DF911F910F910895DF93CF9394
:100C3000CDB7DEB7EBE2F0E080818823DCF7ECE2B1
:100C4000F0E08081CF91DF910895DF93CF930F92F1
:100C5000CDB7DEB78983EBE2F0E08081882F90E0AA
:100C6000807290700097B9F3ECE2F0E089818083A4
:100C70000F90CF91DF910895DF93CF930F92CDB76F
:100C8000DEB704C0ECE2F0E080818983EBE2F0E0C3
:100C900080818823BCF30F90CF91DF910895DF937B
:100CA000CF9300D000D0CDB7DEB79C838B831A8260
:100CB00019820FC029813A818B819C81FC01E20F4E
:100CC000F31F80810E94250689819A8101969A836B
:100CD000898329813A818B819C81FC01E20FF31F7A
:100CE0008081882339F70F900F900F900F90CF914C
:100CF000DF9108950F931F93DF93CF93CDB7DEB7A6
:100D000028970FB6F894DEBF0FBECDBF9F838E83AA
:100D100068871A821B821C821D8288858F5F898367
:100D20001FC02A813B818E819F818C01020F131F7E
:100D30000E941606F80180832A813B818E819F8163
:100D4000FC01E20FF31F808189838A819B81AC8142
:100D5000BD810196A11DB11D8A839B83AC83BD8398
:100D6000998188859817E9F62A813B818E819F8138
:100D7000FC01E20FF31F10828A8128960FB6F894C7
:100D8000DEBF0FBECDBFCF91DF911F910F910895B0
:100D9000DF93CF9300D000D000D0CDB7DEB76B8308
:100DA0007C838D839E831A8219828B819C81AD8185
:100DB000BE81880F991FAA1FBB1F880F991FAA1FEA
:100DC000BB1F880F991FAA1FBB1F880F991FAA1F3F
:100DD000BB1F9C01AD0180E092E1AAE7B0E0BC013D
:100DE000CD010E94562EDA01C90101979A838983A9
:100DF000E0E4F0E089819A81892F99278083E9E2F4
:100E0000F0E089818083EAE2F0E088E18083E0E439
:100E1000F0E086E8808326960FB6F894DEBF0FBE1A
:100E2000CDBFCF91DF910895DF93CF930F92CDB7D0
:100E3000DEB78983EBE2F0E08081882F90E080725A
:100E400090700097B9F3ECE2F0E0898180830F9015
:100E5000CF91DF910895DF93CF9300D000D000D0E1
:100E6000CDB7DEB79E838D8319821A821B821C82C6
:100E700015C029813A818D819E81FC01E20FF31F0B
:100E800080810E94140789819A81AB81BC8101967F
:100E9000A11DB11D89839A83AB83BC8329813A81CB
:100EA0008D819E81FC01E20FF31F8081882309F769
:100EB00026960FB6F894DEBF0FBECDBFCF91DF915F
:100EC0000895DF93CF93CDB7DEB7EBE2F0E08081FA
:100ED0008823DCF7ECE2F0E08081CF91DF91089588
:100EE000DF93CF9300D00F92CDB7DEB79B838A8379
:100EF0001982EBE2F0E0808188234CF4ECE2F0E030
:100F00008081EA81FB81808381E0898301C019822D
:100F100089810F900F900F90CF91DF910895DF930B
:100F2000CF93CDB7DEB76C970FB6F894DEBF0FBE88
:100F3000CDBF60E875E280E090E00E94A305E7E3A2
:100F4000F0E08FEF8083E4E3F0E01082E8E3F0E08C
:100F5000108280E690E00E944F0680E090E0AAEFC9
:100F6000B3E4898F9A8FAB8FBC8F698D7A8D8B8D0F
:100F70009C8D20E030E04AEF54E40E941F02DC0127
:100F8000CB018D8B9E8BAF8BB88F6D897E898F89BE
:100F9000988D20E030E040E85FE30E9479038823E9
:100FA0002CF481E090E09C8B8B8B3FC06D897E8917
:100FB0008F89988D20E03FEF4FE757E40E94190397
:100FC00018164CF5698D7A8D8B8D9C8D20E030E064
:100FD00040E251E40E941F02DC01CB01BC01CD01C3
:100FE0000E944900DC01CB019C8B8B8B0FC088ECED
:100FF00090E09A8B898B89899A890197F1F79A8B6E
:10100000898B8B899C8901979C8B8B8B8B899C8985
:10101000009769F714C06D897E898F89988D0E9429
:101020004900DC01CB019C8B8B8B8B899C89988B35
:101030008F878F8598890197F1F7988B8F878BE63B
:1010400090E00E944F0680E090E0AAEFB3E48B8727
:101050009C87AD87BE876B857C858D859E8520E0CE
:1010600030E04AEF54E40E941F02DC01CB018F8381
:101070009887A987BA876F81788589859A8520E0C6
:1010800030E040E85FE30E94790388232CF481E09C
:1010900090E09E838D833FC06F81788589859A8596
:1010A00020E03FEF4FE757E40E94190318164CF574
:1010B0006B857C858D859E8520E030E040E251E4A3
:1010C0000E941F02DC01CB01BC01CD010E9449003E
:1010D000DC01CB019E838D830FC088EC90E09C8364
:1010E0008B838B819C810197F1F79C838B838D810E
:1010F0009E8101979E838D838D819E81009769F7E4
:1011000014C06F81788589859A850E944900DC0129
:10111000CB019E838D838D819E819A838983898172
:101120009A810197F1F79A8389836C960FB6F894A8
:10113000DEBF0FBECDBFCF91DF910895DF93CF9378
:10114000CDB7DEB7C35ED1400FB6F894DEBF0FBE99
:10115000CDBF1B821A8280E5FE013496DF01982FF5
:101160001D929A95E9F7DE011496C459DE4FB983B2
:10117000A883CC56D140E9E9F0E0C259DE4FF983AB
:10118000E883CE56D140F7E0C059DE4FF883C05710
:10119000D140C259DE4FA881B981CE56D1400C90C2
:1011A000C259DE4FE881F981CE56D1403196C259FD
:1011B000DE4FF983E883CE56D140C459DE4FA88173
:1011C000B981CC56D1400C92C459DE4FE881F981E7
:1011D000CC56D1403196C459DE4FF983E883CC56C2
:1011E000D140C059DE4FF881C057D140F150C059AD
:1011F000DE4FF883C057D140C059DE4F8881C057B9
:10120000D140882331F61B86DE011C96CF58DE4F75
:10121000B983A883C157D140E1EAF0E0CD58DE4F51
:10122000F983E883C357D140F7E0CB58DE4FF8830A
:10123000C557D140CD58DE4FA881B981C357D140A1
:101240000C90CD58DE4FE881F981C357D1403196DB
:10125000CD58DE4FF983E883C357D140CF58DE4FD6
:10126000A881B981C157D1400C92CF58DE4FE88197
:10127000F981C157D1403196CF58DE4FF983E883C9
:10128000C157D140CB58DE4FF881C557D140F150FE
:10129000CB58DE4FF883C557D140CB58DE4F8881FD
:1012A000C557D140882331F61B8ADE015496CA58AF
:1012B000DE4FB983A883C657D140E9EAF0E0C858A9
:1012C000DE4FF983E883C857D140F7E0C658DE4FB8
:1012D000F883CA57D140C858DE4FA881B981C85792
:1012E000D1400C90C858DE4FE881F981C857D140F1
:1012F0003196C858DE4FF983E883C857D140CA58A1
:10130000DE4FA881B981C657D1400C92CA58DE4F32
:10131000E881F981C657D1403196CA58DE4FF9832A
:10132000E883C657D140C658DE4FF881CA57D1402E
:10133000F150C658DE4FF883CA57D140C658DE4F29
:101340008881CA57D140882331F61B8EDE015C9616
:10135000C558DE4FB983A883CB57D140E1EBF0E00D
:10136000C358DE4FF983E883CD57D140F7E0C15829
:10137000DE4FF883CF57D140C358DE4FA881B981E3
:10138000CD57D1400C90C358DE4FE881F981CD573D
:10139000D1403196C358DE4FF983E883CD57D14011
:1013A000C558DE4FA881B981CB57D1400C92C558A2
:1013B000DE4FE881F981CB57D1403196C558DE4FD9
:1013C000F983E883CB57D140C158DE4FF881CF571E
:1013D000D140F150C158DE4FF883CF57D140C158AA
:1013E000DE4F8881CF57D140882331F61BA2DE0122
:1013F0009496C058DE4FB983A883C058D140E9EB1A
:10140000F0E0CE57DE4FF983E883C258D140F7E0D1
:10141000CC57DE4FF883C458D140CE57DE4FA88159
:10142000B981C258D1400C90CE57DE4FE881F98186
:10143000C258D1403196CE57DE4FF983E883C25867
:10144000D140C058DE4FA881B981C058D1400C921C
:10145000C058DE4FE881F981C058D1403196C0585C
:10146000DE4FF983E883C058D140CC57DE4FF88176
:10147000C458D140F150CC57DE4FF883C458D14006
:10148000CC57DE4F8881C458D140882331F61BA643
:10149000DE019C96CB57DE4FB983A883C558D14057
:1014A000E1ECF0E0C957DE4FF983E883C758D1403B
:1014B000F7E0C757DE4FF883C958D140C957DE4F10
:1014C000A881B981C758D1400C90C957DE4FE88137
:1014D000F981C758D1403196C957DE4FF983E88367
:1014E000C758D140CB57DE4FA881B981C558D140EC
:1014F0000C92CB57DE4FE881F981C558D140319627
:10150000CB57DE4FF983E883C558D140C757DE4F2C
:10151000F881C958D140F150C757DE4FF883C958F8
:10152000D140C757DE4F8881C958D140882331F652
:101530001BAADE01D496C657DE4FB983A883CA58CA
:10154000D140E9ECF0E0C457DE4FF983E883CC5892
:10155000D140F7E0C257DE4FF883CE58D140C45790
:10156000DE4FA881B981CC58D1400C90C457DE4FD2
:10157000E881F981CC58D1403196C457DE4FF983C8
:10158000E883CC58D140C657DE4FA881B981CA58EC
:10159000D1400C92C657DE4FE881F981CA58D1403C
:1015A0003196C657DE4FF983E883CA58D140C257F7
:1015B000DE4FF881CE58D140F150C257DE4FF8834C
:1015C000CE58D140C257DE4F8881CE58D1408823B3
:1015D00031F61BAEDE01DC96C157DE4FB983A8831E
:1015E000CF58D140E1EDF0E0CF56DE4FF983E883EC
:1015F000C159D140F7E0CD56DE4FF883C359D140F1
:10160000CF56DE4FA881B981C159D1400C90CF5639
:10161000DE4FE881F981C159D1403196CF56DE4F76
:10162000F983E883C159D140C157DE4FA881B98100
:10163000CF58D1400C92C157DE4FE881F981CF5885
:10164000D1403196C157DE4FF983E883CF58D1405E
:10165000CD56DE4FF881C359D140F150CD56DE4F03
:10166000F883C359D140CD56DE4F8881C359D1404C
:10167000882331F6FE01ED5BFF4F1082DE01AC5B8B
:10168000BF4FCC56DE4FB983A883C459D140CC5646
:10169000DE4FE881F981C459D140CA56DE4FF98343
:1016A000E883C659D14089ED90E0C856DE4F998352
:1016B0008883C859D14097E0C656DE4F9883CA59EF
:1016C000D140C856DE4FA881B981C859D1400C908D
:1016D000C856DE4FE881F981C859D1403196C856C5
:1016E000DE4FF983E883C859D140CA56DE4FA8813E
:1016F000B981C659D1400C92CA56DE4FE881F981B2
:10170000C659D1403196CA56DE4FF983E883C6598F
:10171000D140C656DE4FF881CA59D140F150C65665
:10172000DE4FF883CA59D140C656DE4F8881CA5968
:10173000D140882331F6CC56DE4FA881B981C459F7
:10174000D14017961C92CE01845B9F4FC556DE4F49
:1017500099838883CB59D140E1EEF0E0C356DE4F48
:10176000F983E883CD59D140F8E0C156DE4FF883C4
:10177000CF59D140C356DE4FA881B981CD59D14050
:101780000C90C356DE4FE881F981CD59D140319696
:10179000C356DE4FF983E883CD59D140C556DE4F9D
:1017A000A881B981CB59D1400C92C556DE4FE88152
:1017B000F981CB59D1403196C556DE4FF983E88384
:1017C000CB59D140C156DE4FF881CF59D140F150AD
:1017D000C156DE4FF883CF59D140C156DE4F8881C4
:1017E000CF59D140882331F6CE018C5A9F4F20E546
:1017F000FC01DF01822F1D928A95E9F7DE01AC5AC8
:10180000BF4FC056DE4FB983A883C05AD140C056DF
:10181000DE4FE881F981C05AD140CE55DE4FF983C1
:10182000E883C25AD14089E990E0CC55DE4F9983D4
:101830008883C45AD14097E0CA55DE4F9883C65A70
:10184000D140CC55DE4FA881B981C45AD1400C900B
:10185000CC55DE4FE881F981C45AD1403196CC5540
:10186000DE4FF983E883C45AD140CE55DE4FA881BC
:10187000B981C25AD1400C92CE55DE4FE881F98130
:10188000C25AD1403196CE55DE4FF983E883C25A11
:10189000D140CA55DE4FF881C65AD140F150CA55E1
:1018A000DE4FF883C65AD140CA55DE4F8881C65AEA
:1018B000D140882331F6C056DE4FA881B981C05A85
:1018C000D14017961C92FE01EC5AFF4FC955DE4FCE
:1018D000F983E883C75AD140C955DE4F8881998181
:1018E000C75AD1400896C755DE4F99838883C95A95
:1018F000D140A1EAB0E0C555DE4FB983A883CB5AE9
:10190000D140B7E0C355DE4FB883CD5AD140C5555D
:10191000DE4FE881F981CB5AD1400080C555DE4FBA
:1019200088819981CB5AD1400196C555DE4F998364
:101930008883CB5AD140C755DE4FA881B981C95A97
:10194000D1400C92C755DE4FE881F981C95AD14088
:101950003196C755DE4FF983E883C95AD140C35544
:10196000DE4FF881CD5AD140F150C355DE4FF88398
:10197000CD5AD140C355DE4F8881CD5AD1408823FE
:1019800031F6C955DE4FA881B981C75AD1401F969B
:101990001C92FE01EC5AFF4FC255DE4FF983E883DB
:1019A000CE5AD140C255DE4F88819981CE5AD1405E
:1019B0004096C055DE4F99838883C05BD140A9EA29
:1019C000B0E0CE54DE4FB983A883C25BD140B7E00C
:1019D000CC54DE4FB883C45BD140CE54DE4FE88197
:1019E000F981C25BD1400080CE54DE4F888199815D
:1019F000C25BD1400196CE54DE4F99838883C25B8F
:101A0000D140C055DE4FA881B981C05BD1400C9256
:101A1000C055DE4FE881F981C05BD1403196C05599
:101A2000DE4FF983E883C05BD140CC54DE4FF881B0
:101A3000C45BD140F150CC54DE4FF883C45BD1403D
:101A4000CC54DE4F8881C45BD140882331F6C25527
:101A5000DE4FA881B981CE5AD14057961C92FE0123
:101A6000EC5AFF4FCB54DE4FF983E883C55BD1407E
:101A7000CB54DE4F88819981C55BD1404896C954CB
:101A8000DE4F99838883C75BD140A1EBB0E0C75498
:101A9000DE4FB983A883C95BD140B7E0C554DE4FA0
:101AA000B883CB5BD140C754DE4FE881F981C95B75
:101AB000D1400080C754DE4F88819981C95BD140F5
:101AC0000196C754DE4F99838883C95BD140C954BE
:101AD000DE4FA881B981C75BD1400C92C954DE4F5B
:101AE000E881F981C75BD1403196C954DE4FF98353
:101AF000E883C75BD140C554DE4FF881CB5BD14052
:101B0000F150C554DE4FF883CB5BD140C554DE4F56
:101B10008881CB5BD140882331F6CB54DE4FA8813E
:101B2000B981C55BD1405F961C92FE01EC5AFF4F14
:101B3000C454DE4FF983E883CC5BD140C454DE4FFC
:101B400088819981CC5BD1408096C254DE4F9983C5
:101B50008883CE5BD140A9EBB0E0C054DE4FB9839F
:101B6000A883C05CD140B7E0CE53DE4FB883C25CDF
:101B7000D140C054DE4FE881F981C05CD140008083
:101B8000C054DE4F88819981C05CD1400196C05419
:101B9000DE4F99838883C05CD140C254DE4FA88158
:101BA000B981CE5BD1400C92C254DE4FE881F981FD
:101BB000CE5BD1403196C254DE4FF983E883CE5BD1
:101BC000D140CE53DE4FF881C25CD140F150CE53AC
:101BD000DE4FF883C25CD140CE53DE4F8881C25CB9
:101BE000D140882331F6C454DE4FA881B981CC5B43
:101BF000D14097961C92FE01EC5AFF4FCD53DE4F19
:101C0000F983E883C35CD140CD53DE4F888199814D
:101C1000C35CD1408896CB53DE4F99838883C55CE3
:101C2000D140A1ECB0E0C953DE4FB983A883C75CB3
:101C3000D140B7E0C753DE4FB883C95CD140C95328
:101C4000DE4FE881F981C75CD1400080C953DE4F87
:101C500088819981C75CD1400196C953DE4F998331
:101C60008883C75CD140CB53DE4FA881B981C55C66
:101C7000D1400C92CB53DE4FE881F981C55CD14055
:101C80003196CB53DE4FF983E883C55CD140C7530F
:101C9000DE4FF881C95CD140F150C753DE4FF88365
:101CA000C95CD140C753DE4F8881C95CD1408823CD
:101CB00031F6CD53DE4FA881B981C35CD1409F96E8
:101CC0001C92FE01EC5AFF4FC653DE4FF983E883A6
:101CD000CA5CD140C653DE4F88819981CA5CD1402D
:101CE000C096C453DE4F99838883CC5CD140A9EC65
:101CF000B0E0C253DE4FB983A883CE5CD140B7E0D9
:101D0000C053DE4FB883C05DD140C253DE4FE8817F
:101D1000F981CE5CD1400080C253DE4F8881998129
:101D2000CE5CD1400196C253DE4F99838883CE5C4E
:101D3000D140C453DE4FA881B981CC5CD1400C9214
:101D4000C453DE4FE881F981CC5CD1403196C45355
:101D5000DE4FF983E883CC5CD140C053DE4FF8817D
:101D6000C05DD140F150C053DE4FF883C05DD1401B
:101D7000C053DE4F8881C05DD140882331F6C65301
:101D8000DE4FA881B981CA5CD140D7961C92FE0172
:101D9000EC5AFF4FCF52DE4FF983E883C15DD1404B
:101DA000CF52DE4F88819981C15DD140C896CD5216
:101DB000DE4F99838883C35DD140A1EDB0E0CB5263
:101DC000DE4FB983A883C55DD140B7E0C952DE4F6D
:101DD000B883C75DD140CB52DE4FE881F981C55D44
:101DE000D1400080CB52DE4F88819981C55DD140C2
:101DF0000196CB52DE4F99838883C55DD140CD5289
:101E0000DE4FA881B981C35DD1400C92CD52DE4F27
:101E1000E881F981C35DD1403196CD52DE4FF9831F
:101E2000E883C35DD140C952DE4FF881C75DD14020
:101E3000F150C952DE4FF883C75DD140C952DE4F21
:101E40008881C75DD140882331F6CF52DE4FA8810B
:101E5000B981C15DD140DF961C92FE01EC5AFF4F63
:101E6000C852DE4FF983E883C85DD140C852DE4FC7
:101E700088819981C85DD140805C9F4FC652DE4FFA
:101E800099838883CA5DD140A9EDB0E0C452DE4F8A
:101E9000B983A883CC5DD140B7E0C252DE4FB8838E
:101EA000CE5DD140C452DE4FE881F981CC5DD14096
:101EB0000080C452DE4F88819981CC5DD14001966B
:101EC000C452DE4F99838883CC5DD140C652DE4F29
:101ED000A881B981CA5DD1400C92C652DE4FE8811B
:101EE000F981CA5DD1403196C652DE4FF983E8834D
:101EF000CA5DD140C252DE4FF881CE5DD140F15073
:101F0000C252DE4FF883CE5DD140C252DE4F88818F
:101F1000CE5DD140882331F6C852DE4FE881F98189
:101F2000C85DD140E95BFF4F1082CE018C5A9F4FB4
:101F3000885B9F4FC152DE4F99838883CF5DD1402C
:101F4000A1EEB0E0CF51DE4FB983A883C15ED1408E
:101F5000B8E0CD51DE4FB883C35ED140CF51DE4FE4
:101F6000E881F981C15ED1400080CF51DE4F888188
:101F70009981C15ED1400196CF51DE4F998388830C
:101F8000C15ED140C152DE4FA881B981CF5DD14041
:101F90000C92C152DE4FE881F981CF5DD14031967C
:101FA000C152DE4FF983E883CF5DD140CD51DE4F82
:101FB000F881C35ED140F150CD51DE4FF883C35E4E
:101FC000D140CD51DE4F8881C35ED140882331F6A8
:101FD00019820E943C0689E790E00E944F06CE01DC
:101FE0008C559F4F6DE00E947A068823C1F389E8E3
:101FF00090E00E944F06CE01885F9E4F6DE00E94E8
:102000007A068823C1F31B8231C09E012C5F3F4FAB
:102010008B81882F90E0880F991F880F991F880F58
:10202000991F820F931F9E012C553F4FB9010E94AB
:10203000D32E0097C1F49E012C5A3F4F8B81882FDD
:1020400090E0880F991F880F991F880F991F820FA2
:10205000931F9E01285F3E4FB9010E94D32E009727
:1020600011F481E08A838B818F5F8B838B818A302F
:1020700060F28A81CD51DE4F0FB6F894DEBF0FBEFD
:10208000CDBFCF91DF910895DF93CF93CDB7DEB76A
:102090002E970FB6F894DEBF0FBECDBF80E090E064
:1020A000A8E4B3E48B879C87AD87BE876B857C856E
:1020B0008D859E8520E030E04AEF54E40E941F02A7
:1020C000DC01CB018F839887A987BA876F817885D8
:1020D00089859A8520E030E040E85FE30E9479033B
:1020E00088232CF481E090E09E838D833FC06F8134
:1020F000788589859A8520E03FEF4FE757E40E9475
:10210000190318164CF56B857C858D859E8520E01E
:1021100030E040E251E40E941F02DC01CB01BC012F
:10212000CD010E944900DC01CB019E838D830FC04D
:1021300088EC90E09C838B838B819C810197F1F7E5
:102140009C838B838D819E8101979E838D838D815E
:102150009E81009769F714C06F81788589859A857B
:102160000E944900DC01CB019E838D838D819E817D
:102170009A83898389819A810197F1F79A83898368
:10218000A8E3B0E0E8E3F0E0908183E089278C9356
:102190002E960FB6F894DEBF0FBECDBFCF91DF9164
:1021A0000895DF93CF93CDB7DEB76F970FB6F8944E
:1021B000DEBF0FBECDBF89EE90E00E944F0680E0EB
:1021C00090E0A6E9B3E4898F9A8FAB8FBC8F698DBD
:1021D0007A8D8B8D9C8D20E030E04AEF54E40E9494
:1021E0001F02DC01CB018D8B9E8BAF8BB88F6D896D
:1021F0007E898F89988D20E030E040E85FE30E947F
:10220000790388232CF481E090E09C8B8B8B3FC07A
:102210006D897E898F89988D20E03FEF4FE757E4E5
:102220000E94190318164CF5698D7A8D8B8D9C8D43
:1022300020E030E040E251E40E941F02DC01CB01CB
:10224000BC01CD010E944900DC01CB019C8B8B8B32
:102250000FC088EC90E09A8B898B89899A890197C5
:10226000F1F79A8B898B8B899C8901979C8B8B8B3F
:102270008B899C89009769F714C06D897E898F8945
:10228000988D0E944900DC01CB019C8B8B8B8B8944
:102290009C89988B8F878F8598890197F1F7988B08
:1022A0008F8784E091E00E944F0680E090E0A6E9ED
:1022B000B3E48B879C87AD87BE876B857C858D85D6
:1022C0009E8520E030E04AEF54E40E941F02DC01CA
:1022D000CB018F839887A987BA876F817885898595
:1022E0009A8520E030E040E85FE30E94790388238C
:1022F0002CF481E090E09E838D833FC06F817885D0
:1023000089859A8520E03FEF4FE757E40E94190343
:1023100018164CF56B857C858D859E8520E030E018
:1023200040E251E40E941F02DC01CB01BC01CD015F
:102330000E944900DC01CB019E838D830FC088EC95
:1023400090E09C838B838B819C810197F1F79C8328
:102350008B838D819E8101979E838D838D819E814C
:10236000009769F714C06F81788589859A850E94E6
:102370004900DC01CB019E838D838D819E819A83F0
:10238000898389819A810197F1F79A83898380E211
:1023900091E00E944F061D8E2BC08D8D282F30E0BE
:1023A0003F8F2E8F8E8D9F8D8133910531F02E8D35
:1023B0003F8D2233310569F018C0A8E3B0E0E8E3AF
:1023C000F0E0908184E089278C930E9416068D8F1F
:1023D0000FC0A8E3B0E0E8E3F0E0908188E089274F
:1023E0008C930E9416068D8F03C00E9416068D8F57
:1023F0008D8D833391F66F960FB6F894DEBF0FBEC6
:10240000CDBFCF91DF910895AF92BF92CF92DF926F
:10241000EF92FF920F93DF93CF930F92CDB7DEB77A
:1024200089838AE062E040E00E94E41E909381018B
:102430008093800188E892E12CE231E0E0E8F1E06D
:10244000B90145E550E09F010981EE24FF24CC2429
:10245000DD24AA24BB240E948D258BE492E124E391
:1024600031E0E0E8F1E0B90145E550E09F01098184
:10247000EE24FF24CC24DD24AA24BB240E948D2535
:102480000F90CF91DF910F91FF90EF90DF90CF9061
:10249000BF90AF900895DF93CF9300D000D000D0CD
:1024A000CDB7DEB79E838D831C821B821A82198270
:1024B00027C0ED81FE81808191819E012D5F3F4F7C
:1024C000B90140E050E020E00E94611F813019F026
:1024D00081E08A8312C08A81882351F40FB6F89470
:1024E0000F9280917F018F5F80937F010F900FBECD
:1024F0008B819C8101969C838B8389818F5F8983EB
:1025000089818330B4F288EC90E00E944727CFCFD6
:10251000DF93CF93CDB7DEB727970FB6F894DEBF22
:102520000FBECDBF9F838E831B821A8219822FC05C
:10253000EE81FF81808191819E012C5F3F4FB90127
:1025400040E050E020E00E946F20813001F52C81B6
:102550003D818A819B812817390739F081E0898381
:102560008C819D819B838A830DC08981882351F44E
:102570000FB6F8940F9280917E018F5F80937E0159
:102580000F900FBE8A819B8101969B838A83EE8187
:10259000FF81808191810E94C321882349F684EBC9
:1025A00090E00E944727F3CFDF93CF930F92CDB7F0
:1025B000DEB780917E01882321F080917F018823FE
:1025C00011F4198202C081E0898310927E01109279
:1025D0007F0189810F90CF91DF910895DF93CF9391
:1025E000CDB7DEB727970FB6F894DEBF0FBECDBFCD
:1025F0009D838C836E834F838AE190E00E9406194D
:102600009A83898389819A81009709F46FC08091A8
:10261000820190918301009741F489819A8190937E
:102620008301809382010E9455158E81823010F0C3
:1026300081E08E83E981FA81118E108EE981FA8121
:102640008E81868BE981FA818F81878BE981FA817E
:102650008C819D819183808389819A8102960E94D9
:102660007E1A89819A810C960E947E1AE981FA81EC
:1026700089819A8191878087E981FA8189819A810C
:10268000938B828B8E81282F30E082E090E0821B3A
:10269000930BE981FA8195878487E981FA8196898C
:1026A00080918401891728F4E981FA8186898093D1
:1026B0008401E981FA818689282F30E0C901880FD9
:1026C000991F880F991F880F991F820F931FAC01C4
:1026D00045575E4F89819A819C012E5F3F4FCA0109
:1026E000B9010E948E1A81E08B8302C08FEF8B8329
:1026F0008B8127960FB6F894DEBF0FBECDBFCF916A
:10270000DF910895DF93CF9300D000D000D0CDB7F4
:10271000DEB79C838B837E836D832091850130910E
:1027200086018B819C81820F931F9A83898380917C
:1027300082019091830102960E943E1BE0918201EA
:10274000F091830189819A8193838283209185010D
:102750003091860189819A818217930770F4809164
:10276000B1019091B20120918201309183012E5FDD
:102770003F4FB9010E94D21A0DC08091AF019091D4
:10278000B00120918201309183012E5F3F4FB9014A
:102790000E94D21A8D819E81009761F08091820102
:1027A000909183019C01245F3F4F8D819E81B901EF
:1027B0000E94D21A26960FB6F894DEBF0FBECDBF88
:1027C000CF91DF910895DF93CF9300D0CDB7DEB7DF
:1027D0003AC0F894E091B801F091B90186819781EF
:1027E0009A83898389819A810C960E943E1B7894F2
:1027F00089819A8102960E943E1BE981FA8196891D
:1028000080918401891728F4E981FA81868980936F
:102810008401E981FA818689282F30E0C901880F77
:10282000991F880F991F880F991F820F931FAC0162
:1028300045575E4F89819A819C012E5F3F4FCA01A7
:10284000B9010E948E1A8091B301882309F0C1CF8B
:102850000F900F90CF91DF910895DF93CF9300D029
:1028600000D0CDB7DEB70E94552820918701309166
:102870008801821B930B90938A018093890185C004
:1028800080918501909186010196909386018093B5
:1028900085018091890190918A01019790938A0125
:1028A000809389018091850190918601009709F0BC
:1028B00064C08091AF019091B0019A838983809127
:1028C000B1019091B2019093B0018093AF018981E1
:1028D0009A819093B2018093B1014FC0E091AF0112
:1028E000F091B0010580F681E02D868197819C836F
:1028F0008B83EB81FC8122813381809185019091D2
:1029000086018217930708F440C0F8948B819C815C
:1029100002960E943E1BEB81FC8184899589009779
:1029200029F08B819C810C960E943E1B7894EB8150
:10293000FC81968980918401891728F4EB81FC81C0
:10294000868980938401EB81FC818689282F30E081
:10295000C901880F991F880F991F880F991F820F2F
:10296000931FAC0145575E4F8B819C819C012E5F6C
:102970003F4FCA01B9010E948E1AE091AF01F09158
:10298000B0018081882309F0A9CF809189019091BD
:102990008A01009709F074CF80918501909186019A
:1029A00090938801809387010F900F900F900F9064
:1029B000CF91DF910895DF93CF9300D0CDB7DEB7ED
:1029C0000E94E3130E942D140AC080918401882381
:1029D00009F466C0809184018150809384018091C4
:1029E0008401282F30E0C901880F991F880F991F93
:1029F000880F991F820F931FFC01E557FE4F8081BE
:102A0000882319F380918401282F30E0C901880FB1
:102A1000991F880F991F880F991F820F931F855741
:102A20009E4F9A838983E981FA810180F281E02DAA
:102A300082819381E981FA8192838183E981FA819C
:102A40002181328189819A8103962817390759F4A7
:102A5000E981FA810180F281E02D82819381E9810F
:102A6000FA8192838183E981FA810180F281E02DEC
:102A7000868197819093830180938201E091820106
:102A8000F091830140815181809182019091830175
:102A9000E0918201F09183012789622FFA01099563
:102AA0000F900F90CF91DF910895DF93CF930F9206
:102AB000CDB7DEB7198213C08981282F30E0C90154
:102AC000880F991F880F991F880F991F820F931FD6
:102AD00085579E4F0E94541A89818F5F898389810F
:102AE000823050F38DE991E00E94541A86EA91E019
:102AF0000E94541A83EB91E00E94541A8DE991E0F0
:102B00009093B0018093AF0186EA91E09093B20177
:102B10008093B1010F90CF91DF910895DF93CF9310
:102B200000D000D00F92CDB7DEB79D838C83EC81AF
:102B3000FD810580F681E02D868197819B838A83C4
:102B40008A819B810C960E943E1B8A819B819C01FD
:102B5000245F3F4F83EB91E0B9010E948E1AEA8116
:102B6000FB819689E0918201F09183018689981713
:102B700018F081E0898301C0198289810F900F903C
:102B80000F900F900F90CF91DF910895DF93CF9327
:102B900000D0CDB7DEB78BE090E00E9406199A8393
:102BA000898389819A81009749F0E981FA811182AC
:102BB000108289819A8102960E94541A89819A8191
:102BC0000F900F90CF91DF910895DF93CF93CDB702
:102BD000DEB760970FB6F894DEBF0FBECDBF9A8701
:102BE00089877C876B875E874D87388B2F878985A0
:102BF0009A859C838B8319820E94BF27EB81FC817D
:102C00008081918198878F8389859A852B853C85E2
:102C1000B9010E94B7172F8138858B859C85282B99
:102C2000392B8D859E85282339238D859E852817F0
:102C30003907C9F42F8138858B859C85822B932B8E
:102C40009E838D83EB81FC81208131818D859E85E2
:102C50008095909582239323EB81FC8191838083DF
:102C6000188A1F861CC08F859889009791F08B81E8
:102C70009C81BC016E5F7F4F8D859E859C01356078
:102C80004F855889CB01B9010E940F2A1E821D82EF
:102C900006C0EB81FC81808191819E838D830E949F
:102CA000CB278A838F859889009709F43AC08A8157
:102CB000882311F40E94491D0E94752D9E838D83E7
:102CC0008D819E8180709270009731F50FB6F894D7
:102CD0000F92EB81FC81808191819E838D832D8178
:102CE0003E818D859E85282339238D859E852817D5
:102CF000390771F4EB81FC81208131818D859E85BE
:102D00008095909582239323EB81FC81918380832E
:102D10000F900FBE81E089838D819E8190709E838C
:102D20008D838D819E8160960FB6F894DEBF0FBEB5
:102D3000CDBFCF91DF9108950F931F93DF93CF9372
:102D4000CDB7DEB763970FB6F894DEBF0FBECDBF29
:102D50009D878C877F876E87488B298B1B8B0A8B7F
:102D60008C859D859B878A871F821E821B820E947D
:102D7000BF27EA85FB85808191819A838983898138
:102D80009A812E853F85B90149890E94D4188D8387
:102D90008D818823C1F089819A81998788871B8AD0
:102DA0001A8A88898823D9F1EA85FB8520813181B7
:102DB0008E859F858095909582239323EA85FB8558
:102DC000918380832CC08A899B89009729F489810B
:102DD0009A819987888723C08889882329F08E81E2
:102DE0009F8191609F838E838989882329F08E81BA
:102DF0009F8194609F838E838A859B85BC016E5FD3
:102E00007F4F2E853F858E819F81282B392B4A89C4
:102E10005B89CB01B9010E940F2A198618860E948E
:102E2000CB278C838A899B89009709F43BC08C81CE
:102E3000882311F40E94491D0E94752D9987888767
:102E40008885998580709270009739F50FB6F8944F
:102E50000F92EA85FB858081918199878887888593
:102E600099852E853F85B90149890E94D418882308
:102E700089F08889882371F0EA85FB85208131817A
:102E80008E859F858095909582239323EA85FB8587
:102E9000918380830F900FBE1B82888599859070E7
:102EA000998788878885998563960FB6F894DEBFE1
:102EB0000FBECDBFCF91DF911F910F910895DF938A
:102EC000CF93CDB7DEB728970FB6F894DEBF0FBE0D
:102ED000CDBF9E838D8378876F838D819E819C83F8
:102EE0008B830FB6F8940F92EB81FC8180819181E6
:102EF0009A838983EB81FC81208131818F81988540
:102F00008095909582239323EB81FC81918380832C
:102F10000F900FBE89819A8128960FB6F894DEBF74
:102F20000FBECDBFCF91DF910895DF93CF93CDB783
:102F3000DEB727970FB6F894DEBF0FBECDBF9F83D5
:102F40008E838E819F819C838B831D82EB81FC818C
:102F5000808191819A83898389819A8127960FB68E
:102F6000F894DEBF0FBECDBFCF91DF910895DF9300
:102F7000CF93CDB7DEB765970FB6F894DEBF0FBE1F
:102F8000CDBF9B8B8A8B7D8B6C8B198618868A892B
:102F90009B899B838A8319828A819B8102969B8766
:102FA0008A878A859B8503969D878C870E94BF2789
:102FB000EA85FB8585819681998B888BEA81FB81E7
:102FC000208131818C899D89822B932BEA81FB8121
:102FD0009183808359C0E889F989828193819F8791
:102FE0008E87E889F989808191819F838E831982F8
:102FF0008E819F8180709D838C838E819F81907054
:103000009F838E838C819D8180709470009769F47A
:10301000EA81FB81208131818E819F8182239323EC
:10302000009791F081E089830FC0EA81FB812081C4
:1030300031818E819F81282339238E819F8128179A
:10304000390711F481E0898389818823C9F08C8153
:103050009D8180709170009741F0888599852E81BF
:103060003F81822B932B99878887EA81FB8180811E
:1030700091819C01326088899989B9010E94BD2A99
:103080008E859F85998B888B288939898C859D852C
:103090002817390709F09FCFEA81FB812081318110
:1030A000888599858095909582239323EA81FB8179
:1030B000918380830E94CB27EA81FB81808191816B
:1030C00065960FB6F894DEBF0FBECDBFCF91DF91EE
:1030D0000895DF93CF9300D000D000D0CDB7DEB7F6
:1030E0009E838D838D819E819C838B838B819C812C
:1030F00002969A8389830E94BF2708C0E981FA81DA
:103100008581968160E072E00E94BD2AE981FA81A2
:103110008081882399F78B819C810E945C190E9491
:10312000CB2726960FB6F894DEBF0FBECDBFCF914A
:10313000DF910895DF93CF9300D000D000D0CDB7BA
:10314000DEB79A8389834B835C836D837E832B8177
:103150003C8189819A81B9010E94B71726960FB6E2
:10316000F894DEBF0FBECDBFCF91DF910895DF93FE
:10317000CF9300D000D000D0CDB7DEB79A8389833B
:103180004B835C836D837E832B813C8189819A8113
:10319000B9010E945F1726960FB6F894DEBF0FBEE6
:1031A000CDBFCF91DF910895DF93CF9300D000D0B2
:1031B00000D0CDB7DEB79B838A837D836C834E833B
:1031C00019828E81882359F48A819B812C813D81CB
:1031D00082239323009781F081E089830DC02A81A7
:1031E0003B818C819D81282339238C819D812817E7
:1031F000390711F481E08983898126960FB6F89406
:10320000DEBF0FBECDBFCF91DF910895DF93CF9387
:1032100000D000D0CDB7DEB79C838B831A82198291
:103220000E94BF278091BE019091BF01009731F4A9
:1032300081EC91E09093BF018093BE018091BC012D
:103240009091BD012B813C81820F931F25E08B3D26
:10325000920738F52091BC013091BD018B819C8192
:10326000280F391F8091BC019091BD0182179307EF
:10327000C0F42091BE013091BF018091BC019091BA
:10328000BD01820F931F9A8389832091BC013091E5
:10329000BD018B819C81820F931F9093BD01809310
:1032A000BC010E94CB2789819A810F900F900F90CB
:1032B0000F90CF91DF910895DF93CF9300D0CDB7DA
:1032C000DEB79A8389830F900F90CF91DF91089595
:1032D000DF93CF93CDB7DEB71092BD011092BC0142
:1032E000CF91DF910895DF93CF93CDB7DEB72091D3
:1032F000BC013091BD018BED95E0821B930BCF910A
:10330000DF910895AF92BF92CF92DF92EF92FF923A
:103310000F93DF93CF9300D00F92CDB7DEB78B839F
:103320001A8219821BC089819A81FC01E456F84FE8
:1033300080EC99E12CE331E0B90145E550E09F01D3
:103340000B81EE24FF24CC24DD24AA24BB240E947C
:103350008D2589819A8101969A83898389819A81B1
:103360001816190604F70F900F900F90CF91DF9168
:103370000F91FF90EF90DF90CF90BF90AF900895A6
:10338000DF93CF93CDB7DEB72A970FB6F894DEBFA1
:103390000FBECDBF9A8789871C821B8289859A853B
:1033A0009A8389838BE790E0A0E0B0E08D839E83D1
:1033B000AF83B8878D819E81AF81B885895B9B463D
:1033C000AC4FBF4F8D839E83AF83B8878D819E8125
:1033D000AF81B8852DEF3FEF4FEF5FEFBC01CD011F
:1033E0000E94372EDC01CB018D839E83AF83B8878B
:1033F0008D819E81AF81B88527E030E040E050E0CC
:10340000BC01CD010E94782EDA01C9018D839E8313
:10341000AF83B8878D819E81AF81B8858B3127E7D7
:1034200092072EEFA2072FEFB20721F081E090E084
:103430009C838B838B819C81009709F0B3CF0FB65F
:10344000F8940F92E981FA8181E080830F900FBE9A
:10345000A9CFDF93CF9300D00F92CDB7DEB781E035
:103460008B831A82198214C089819A81FC01E456E7
:10347000F84F8081882309F41B8289819A81FC019D
:10348000E456F84F108289819A8101969A83898344
:1034900089819A81181619063CF78B810F900F903D
:1034A0000F90CF91DF910895DF93CF9300D0CDB7E8
:1034B000DEB79A83898389819A810396E981FA81AB
:1034C00092838183E981FA818FEF9FEF94838383D5
:1034D00089819A810396E981FA819683858389811E
:1034E0009A810396E981FA8190878783E981FA813D
:1034F00010820F900F90CF91DF910895DF93CF93BB
:1035000000D0CDB7DEB79A838983E981FA8111862D
:1035100010860F900F90CF91DF910895DF93CF9396
:1035200000D000D000D0CDB7DEB79C838B837E83E4
:103530006D83EB81FC81818192819A838983ED8106
:10354000FE8189819A8193838283E981FA818481D2
:103550009581ED81FE8195838483E981FA810480E0
:10356000F581E02D8D819E8193838283E981FA81AB
:103570008D819E8195838483ED81FE818B819C81E9
:1035800091878087EB81FC8180818F5FEB81FC815B
:10359000808326960FB6F894DEBF0FBECDBFCF91C5
:1035A000DF910895DF93CF93CDB7DEB728970FB69D
:1035B000F894DEBF0FBECDBF9E838D8378876F8367
:1035C000EF81F885808191819A83898389819A81AD
:1035D0002FEF8F3F920739F4ED81FE81878190852F
:1035E0009C838B8318C08D819E8103969C838B83E3
:1035F00006C0EB81FC81828193819C838B83EB816C
:10360000FC810280F381E02D2081318189819A81C2
:103610008217930770F7EB81FC8182819381EF81A0
:10362000F88593838283EF81F8850280F381E02D12
:103630008F81988595838483EF81F8858B819C8128
:1036400095838483EB81FC818F819885938382832A
:10365000EF81F8858D819E8191878087ED81FE8144
:1036600080818F5FED81FE81808328960FB6F8946C
:10367000DEBF0FBECDBFCF91DF910895DF93CF9313
:1036800000D000D0CDB7DEB79C838B83EB81FC816B
:10369000808591859A838983EB81FC81A281B381A6
:1036A000EB81FC818481958115969C938E93149770
:1036B000EB81FC81A481B581EB81FC8182819381C6
:1036C00013969C938E931297E981FA81218132811E
:1036D0008B819C812817390741F4EB81FC8184811F
:1036E0009581E981FA8192838183EB81FC81118646
:1036F0001086E981FA8180818150E981FA81808395
:10370000E981FA8180810F900F900F900F90CF91F7
:10371000DF910895DF93CF93CDB7DEB728970FB62B
:10372000F894DEBF0FBECDBF9C838B837E836D83F9
:1037300058874F83EB81FC8181E180838B819C8161
:1037400001979C838B83EB81FC8182E280838B8158
:103750009C8101979C838B83EB81FC8183E3808335
:103760008B819C8101979C838B838D819E819A8321
:1037700089838981EB81FC8180838B819C81019786
:103780009C838B8389819A81892F99279A83898346
:103790008981EB81FC8180838B819C8101979C8353
:1037A0008B83EB81FC8110828B819C8101979C83B0
:1037B0008B83EB81FC8180E880838B819C810197E6
:1037C0009C838B83EB81FC8110828B819C81019790
:1037D0009C838B83EB81FC8182E080838B819C8145
:1037E00001979C838B83EB81FC8183E080838B81B9
:1037F0009C8101979C838B83EB81FC8184E0808397
:103800008B819C8101979C838B83EB81FC8185E07C
:1038100080838B819C8101979C838B83EB81FC81CE
:1038200086E080838B819C8101979C838B83EB81D5
:10383000FC8187E080838B819C8101979C838B83B3
:10384000EB81FC8188E080838B819C8101979C8344
:103850008B83EB81FC8189E080838B819C81019744
:103860009C838B83EB81FC8180E180838B819C81B5
:1038700001979C838B83EB81FC8181E180838B8129
:103880009C8101979C838B83EB81FC8182E1808307
:103890008B819C8101979C838B83EB81FC8183E1ED
:1038A00080838B819C8101979C838B83EB81FC813E
:1038B00084E180838B819C8101979C838B83EB8146
:1038C000FC8185E180838B819C8101979C838B8324
:1038D000EB81FC8186E180838B819C8101979C83B5
:1038E0008B83EB81FC8187E180838B819C810197B5
:1038F0009C838B83EB81FC8188E180838B819C811D
:1039000001979C838B83EB81FC8189E180838B8190
:103910009C8101979C838B83EB81FC8180E2808377
:103920008B819C8101979C838B83EB81FC8181E25D
:1039300080838B819C8101979C838B83EB81FC81AD
:1039400082E280838B819C8101979C838B83EB81B6
:10395000FC8183E280838B819C8101979C838B8394
:103960008F8198859A8389838981EB81FC8180830B
:103970008B819C8101979C838B8389819A81892F7C
:1039800099279A8389838981EB81FC8180838B814C
:103990009C8101979C838B83EB81FC8186E28083F1
:1039A0008B819C8101979C838B83EB81FC8187E2D7
:1039B00080838B819C8101979C838B83EB81FC812D
:1039C00088E280838B819C8101979C838B83EB8130
:1039D000FC8189E280838B819C8101979C838B830E
:1039E000EB81FC8180E380838B819C8101979C83A8
:1039F0008B83EB81FC8181E380838B819C810197A8
:103A00009C838B838B819C8128960FB6F894DEBFB4
:103A10000FBECDBFCF91DF910895DF93CF93CDB788
:103A2000DEB70E94FF1DA0919D07B0919E07CD912A
:103A3000CDBFDD91DEBFFF91EF91DF91CF91BF91BF
:103A4000AF919F918F917F916F915F914F913F9136
:103A50002F911F910F91FF90EF90DF90CF90BF902B
:103A6000AF909F908F907F906F905F904F903F901E
:103A70002F901F900F900FBE0F90089581E0CF916F
:103A8000DF910895DF93CF93CDB7DEB7CF91DF916C
:103A900008950F920FB6F8940F921F9211242F924F
:103AA0003F924F925F926F927F928F929F92AF92CE
:103AB000BF92CF92DF92EF92FF920F931F932F93BB
:103AC0003F934F935F936F937F938F939F93AF93A6
:103AD000BF93CF93DF93EF93FF93A0919D07B09196
:103AE0009E070DB60D920EB60D920E947129A091FF
:103AF0009D07B0919E07CD91CDBFDD91DEBFFF91B7
:103B0000EF91DF91CF91BF91AF919F918F917F9175
:103B10006F915F914F913F912F911F910F91FF9066
:103B2000EF90DF90CF90BF90AF909F908F907F905D
:103B30006F905F904F903F902F901F900F900FBE0F
:103B40000F9008950F920FB6F8940F921F921124C0
:103B50002F923F924F925F926F927F928F929F929D
:103B6000AF92BF92CF92DF92EF92FF920F931F938B
:103B70002F933F934F935F936F937F938F939F9375
:103B8000AF93BF93CF93DF93EF93FF93A0919D07E4
:103B9000B0919E070DB60D920EB60D920E948A2826
:103BA000882311F00E947129A0919D07B0919E0772
:103BB000CD91CDBFDD91DEBFFF91EF91DF91CF9130
:103BC000BF91AF919F918F917F916F915F914F9135
:103BD0003F912F911F910F91FF90EF90DF90CF9029
:103BE000BF90AF909F908F907F906F905F904F901D
:103BF0003F902F901F900F900FBE0F900895DF936E
:103C0000CF9300D000D000D0CDB7DEB780E49FE1E5
:103C1000A0E0B0E08B839C83AD83BE838B819C81CD
:103C2000AD81BE81689415F8B695A795979587954F
:103C30001694D1F78B839C83AD83BE838B819C814B
:103C4000AD81BE810197A109B1098B839C83AD83AE
:103C5000BE838B8189838B819C81AD81BE81892FBD
:103C60009A2FAB2FBB278B839C83AD83BE838B8125
:103C70008A83EBE4F0E08A818083EAE4F0E08981E2
:103C800080838BE08983EEE4F0E089818083E9E53D
:103C9000F0E080818983898180618983E9E5F0E0B2
:103CA0008981808326960FB6F894DEBF0FBECDBF04
:103CB000CF91DF9108950E94A21D1895DF93CF93B5
:103CC00000D000D00F92CDB7DEB79C838B836D837D
:103CD0008B819C819A8389830FB6F8940F92E98136
:103CE000FA8140815181E981FA81838D282F30E06A
:103CF000E981FA81848D882F90E0BC01269FC00164
:103D0000279F900D369F900D1124840F951FE981F8
:103D1000FA8193838283E981FA81128EE981FA81A3
:103D200080819181E981FA8195838483E981FA8197
:103D300040815181E981FA81838D882F90E09C0137
:103D400021503040E981FA81848D882F90E0BC01B8
:103D5000269FC001279F900D369F900D1124840F40
:103D6000951FE981FA8197838683E981FA818FEF34
:103D7000858FE981FA818FEF868F8D81882379F491
:103D8000E981FA8180858823A1F089819A8108964A
:103D90000E94522A813069F40E94491D0AC089811B
:103DA0009A8108960E94541A89819A8141960E94AC
:103DB000541A0F900FBE81E00F900F900F900F904C
:103DC0000F90CF91DF910895DF93CF93CDB7DEB7FA
:103DD00029970FB6F894DEBF0FBECDBF8F836887DB
:103DE00049871A8219828F81882309F43FC08FE1A5
:103DF00090E00E9406199E838D838D819E8100979D
:103E0000A9F18F81282F30E08885882F90E0AC01C0
:103E1000249FC001259F900D349F900D1124019681
:103E20009C838B838B819C810E940619ED81FE818E
:103E300091838083ED81FE8180819181009791F053
:103E4000ED81FE818F81838FED81FE818885848F56
:103E50008D819E8161E00E945E1E8D819E819A838C
:103E6000898304C08D819E810E945C1989819A8119
:103E700029960FB6F894DEBF0FBECDBFCF91DF916C
:103E80000895DF93CF9300D000D0CDB7DEB78B83FA
:103E90006C838B8160E042E00E94E41E9A838983F8
:103EA00089819A81009721F0E981FA818C81828F42
:103EB00089819A810F900F900F900F90CF91DF9191
:103EC0000895DF93CF93CDB7DEB72F970FB6F89451
:103ED000DEBF0FBECDBF998788877B876A875D87E6
:103EE0004C872E871C82888599859A8389830FB693
:103EF000F8940F92E981FA81928DE981FA81838D9C
:103F0000981718F08E85823011F589819A812A855B
:103F10003B85B9014E850E9436228B83E981FA8167
:103F20008189882351F089819A8141960E94522A81
:103F3000813041F40E94491D05C08B81882311F016
:103F40000E94491D0F900FBE81E08F875CC08C8559
:103F50009D85009721F40F900FBE1F8654C08C8161
:103F6000882331F4CE0105960E94222B81E08C83B8
:103F70000F900FBE0E94BF270FB6F8940F92E981F1
:103F8000FA81858D8F3F19F4E981FA81158EE981D7
:103F9000FA81868D8F3F19F4E981FA81168E0F9090
:103FA0000FBECE0105969E01245F3F4FB9010E94CE
:103FB0003B2B882309F589819A810E94AD238823B0
:103FC000A1F089819A8108962C853D85B9010E94CE
:103FD000DA2989819A810E9424230E94CB27882391
:103FE00009F085CF0E94491D82CF89819A810E9464
:103FF00024230E94CB277BCF89819A810E9424238E
:104000000E94CB271F868F852F960FB6F894DEBFB0
:104010000FBECDBFCF91DF910895DF93CF93CDB782
:10402000DEB72B970FB6F894DEBF0FBECDBF9E83D1
:104030008D8378876F835A8749872B878D819E81EF
:104040009A8389831B82E981FA81928DE981FA81C1
:10405000838D981718F08B858230B1F589819A810C
:104060002F813885B9014B850E943622882341F083
:1040700089859A85009721F0E985FA8581E080831A
:10408000E981FA81868D8F3FA9F4E981FA818189DE
:104090008823B9F089819A8141960E94522A882307
:1040A00081F089859A85009761F0E985FA8581E03C
:1040B000808307C0E981FA81868D8F5FE981FA816B
:1040C000868F81E08C8301C01C828C812B960FB679
:1040D000F894DEBF0FBECDBFCF91DF910895DF937F
:1040E000CF93CDB7DEB760970FB6F894DEBF0FBEA3
:1040F000CDBF9A8789877C876B875E874D872F879F
:104100001D8289859A859A8389830FB6F8940F92C8
:10411000E981FA81828D882309F43FC0E981FA811F
:10412000868197819C838B8389819A812B853C85AD
:10413000B9010E94DD228F858823B1F4E981FA81DB
:10414000828D8150E981FA81828FE981FA818085AF
:104150008823F1F089819A8108960E94522A813041
:10416000B9F40E94491D14C0E981FA818B819C81B8
:1041700097838683E981FA818189882349F089813F
:104180009A8141960E94522A882311F00E94491D6B
:104190000F900FBE81E0888B5CC08D859E85009757
:1041A00021F40F900FBE188A54C08D81882331F4FA
:1041B000CE0106960E94222B81E08D830F900FBEC8
:1041C0000E94BF270FB6F8940F92E981FA81858D7E
:1041D0008F3F19F4E981FA81158EE981FA81868D84
:1041E0008F3F19F4E981FA81168E0F900FBECE0130
:1041F00006969E01235F3F4FB9010E943B2B882307
:1042000009F589819A810E9478238823A1F0898108
:104210009A8141962D853E85B9010E94DA298981CE
:104220009A810E9424230E94CB27882309F06DCF16
:104230000E94491D6ACF89819A810E9424230E948D
:10424000CB2763CF89819A810E9424230E94CB27A8
:10425000188A888960960FB6F894DEBF0FBECDBF6E
:10426000CF91DF910895DF93CF93CDB7DEB72A9733
:104270000FB6F894DEBF0FBECDBF9E838D837887C7
:104280006F835A8749878D819E819A8389831B8298
:10429000E981FA81828D882391F189819A812F8128
:1042A0003885B9010E94DD22E981FA81828D815031
:1042B000E981FA81828FE981FA81858D8F3FA9F4A6
:1042C000E981FA8180858823B9F089819A810896ED
:1042D0000E94522A882381F089859A85009761F08F
:1042E000E985FA8581E0808307C0E981FA81858DBF
:1042F0008F5FE981FA81858F81E08C8301C01C8208
:104300008C812A960FB6F894DEBF0FBECDBFCF9139
:10431000DF910895DF93CF93CDB7DEB72A970FB61D
:10432000F894DEBF0FBECDBF98878F837A876987E9
:104330008F8198859A8389831D82E981FA81828D94
:104340008823B1F0E981FA81868197819C838B83F0
:1043500089819A8129853A85B9010E94DD22E98106
:10436000FA818B819C819783868381E08E8301C053
:104370001E828E812A960FB6F894DEBF0FBECDBF87
:10438000CF91DF910895DF93CF9300D00F92CDB7F7
:10439000DEB79B838A830FB6F8940F92EA81FB8184
:1043A000828D89830F900FBE89810F900F900F909F
:1043B000CF91DF910895DF93CF9300D000D00F927B
:1043C000CDB7DEB79D838C838C819D819A83898351
:1043D0000FB6F8940F92E981FA81938DE981FA8101
:1043E000828D292F281B822F8B830F900FBE8B81EC
:1043F0000F900F900F900F900F90CF91DF91089535
:10440000DF93CF9300D00F92CDB7DEB79B838A8323
:10441000EA81FB81828D898389810F900F900F90B3
:10442000CF91DF910895DF93CF9300D000D0CDB727
:10443000DEB79C838B838B819C819A838983E981FE
:10444000FA8180819181009731F0E981FA81808140
:1044500091810E945C1989819A810E945C190F9058
:104460000F900F900F90CF91DF910895DF93CF932E
:1044700000D000D000D0CDB7DEB79B838A837D8388
:104480006C834E831982EA81FB81848D882309F431
:1044900083C08E81882399F5EA81FB8164817581CF
:1044A000EA81FB81848D482F50E02C813D81CB0136
:1044B000B9010E94CA2EEA81FB8124813581EA81FB
:1044C000FB81848D882F90E0820F931FEA81FB810E
:1044D00095838483EA81FB8124813581EA81FB8194
:1044E000828193812817390708F456C0EA81FB813D
:1044F00080819181EA81FB81958384834DC0EA812B
:10450000FB8166817781EA81FB81848D482F50E0B1
:104510002C813D81CB01B9010E94CA2EEA81FB8129
:1045200026813781EA81FB81848D882F90E09095E8
:1045300081959F4F820F931FEA81FB81978386832A
:10454000EA81FB8126813781EA81FB81808191812B
:104550002817390790F4EA81FB8122813381EA81AF
:10456000FB81848D882F90E0909581959F4F820FDD
:10457000931FEA81FB81978386838E81823061F469
:10458000EA81FB81828D882339F0EA81FB81828D6B
:104590008150EA81FB81828FEA81FB81828D8F5F6E
:1045A000EA81FB81828F898126960FB6F894DEBF5F
:1045B0000FBECDBFCF91DF910895DF93CF9300D091
:1045C00000D0CDB7DEB79A8389837C836B83E98182
:1045D000FA81848D882389F1E981FA8126813781E6
:1045E000E981FA81848D882F90E0820F931FE98101
:1045F000FA8197838683E981FA8126813781E9816F
:10460000FA81828193812817390740F0E981FA8184
:1046100080819181E981FA8197838683E981FA819A
:1046200046815781E981FA81848D282F30E08B8182
:104630009C81BA01A9010E94CA2E0F900F900F9081
:104640000F90CF91DF910895DF93CF9300D0CDB736
:10465000DEB79A8389830FB6F8940F9215C0E9816B
:10466000FA8181898823A9F089819A8141960E94E3
:10467000522A882311F00E949E2BE981FA81868DAF
:104680008150E981FA81868FE981FA81868D181639
:1046900034F3E981FA818FEF868F0F900FBE0FB64A
:1046A000F8940F9215C0E981FA8180858823A9F0DA
:1046B00089819A8108960E94522A882311F00E94CB
:1046C0009E2BE981FA81858D8150E981FA81858F60
:1046D000E981FA81858D181634F3E981FA818FEF2B
:1046E000858F0F900FBE0F900F90CF91DF9108959F
:1046F000DF93CF9300D00F92CDB7DEB79B838A8331
:104700000FB6F8940F92EA81FB81828D882319F409
:1047100081E0898301C019820F900FBE89810F90BB
:104720000F900F90CF91DF910895DF93CF9300D03A
:104730000F92CDB7DEB79B838A83EA81FB81828D9E
:10474000882319F481E0898301C0198289810F903F
:104750000F900F90CF91DF910895DF93CF9300D00A
:104760000F92CDB7DEB79B838A830FB6F8940F9272
:10477000EA81FB81928DEA81FB81838D981719F480
:1047800081E0898301C019820F900FBE89810F904B
:104790000F900F90CF91DF910895DF93CF9300D0CA
:1047A0000F92CDB7DEB79B838A83EA81FB81928D1E
:1047B000EA81FB81838D981719F481E0898301C018
:1047C000198289810F900F900F90CF91DF910895FA
:1047D000DF93CF93CDB7DEB72A970FB6F894DEBF3D
:1047E0000FBECDBF9D838C837F836E83598748879F
:1047F0008C819D819A838983F89489819A810E9412
:10480000AD238823A9F088859985009771F0898167
:104810009A819C01285F3F4F88859985B9010E9444
:10482000821378948CEF8A872AC078941A8627C0DE
:104830007894F894E981FA81928DE981FA81838DE7
:104840009817C8F489819A812E813F81B90140E08F
:104850000E94362281E08B83E981FA818189882355
:1048600059F089819A8141960E948E15882321F002
:104870008BEF8B8301C01B8278948B818A878A851A
:104880002A960FB6F894DEBF0FBECDBFCF91DF9151
:104890000895DF93CF93CDB7DEB72A970FB6F8947C
:1048A000DEBF0FBECDBF9D838C837F836E83598710
:1048B00048878C819D819A838983F894E981FA8164
:1048C000828D8823A9F488859985009771F0898164
:1048D0009A819C012F5E3F4F88859985B9010E947E
:1048E000821378948CEF8A8758C078941A8655C0C2
:1048F0007894F894E981FA81828D882309F449C07B
:10490000E981FA8126813781E981FA81848D882FB6
:1049100090E0820F931FE981FA8197838683E98172
:10492000FA8126813781E981FA8182819381281772
:10493000390740F0E981FA8180819181E981FA812A
:1049400097838683E981FA81828D8150E981FA819A
:10495000828FE981FA8146815781E981FA81848DCC
:10496000282F30E08E819F81BA01A9010E94CA2EB2
:1049700081E08B83E981FA818085882359F08981E0
:104980009A8108960E948E15882321F08BEF8B83E5
:1049900001C01B8278948B818A878A852A960FB6FC
:1049A000F894DEBF0FBECDBFCF91DF910895DF93A6
:1049B000CF93CDB7DEB728970FB6F894DEBF0FBE02
:1049C000CDBF9C838B837E836D834F838B819C8142
:1049D0009A838983E981FA81928DE981FA81838DB5
:1049E0009817D0F489819A812D813E81B90140E0E8
:1049F0000E9436228F81882379F4E981FA818189A6
:104A0000882351F089819A8141960E948E158823CE
:104A100019F081E0888702C08F8188878885289671
:104A20000FB6F894DEBF0FBECDBFCF91DF910895D2
:104A3000DF93CF93CDB7DEB729970FB6F894DEBFDB
:104A40000FBECDBF9D838C837F836E83598748873C
:104A50008C819D819A838983E981FA81828D882363
:104A600009F450C0E981FA8126813781E981FA8110
:104A7000848D882F90E0820F931FE981FA819783BC
:104A80008683E981FA8126813781E981FA818281F1
:104A900093812817390740F0E981FA81808191815B
:104AA000E981FA8197838683E981FA81828D815039
:104AB000E981FA81828FE981FA8146815781E98112
:104AC000FA81848D282F30E08E819F81BA01A9015F
:104AD0000E94CA2EE885F9858081882381F4E981C6
:104AE000FA818085882359F089819A8108960E94ED
:104AF0008E15882321F0E885F98581E0808381E0A7
:104B00008B8301C01B828B8129960FB6F894DEBF80
:104B10000FBECDBFCF91DF910895AF92BF92CF92DC
:104B2000DF92EF92FF920F931F93DF93CF93CDB756
:104B3000DEB764970FB6F894DEBF0FBECDBF9F837C
:104B40008E83798768875B874A873D872C870E87A6
:104B5000F88AEF86DA8AC98ABC8AAB8A8A859B85FD
:104B600029893A89B9010E94F02C9C838B838B811F
:104B70009C81009709F48DC0EB81FC812789308DE1
:104B80008A859B850197820F931F9A8389838B81E6
:104B90009C8128853985EB89FC89AA85BB85B9016B
:104BA0004E859F018D010E94B82B89819A812E81AB
:104BB0003F814C855D85B9010E948A1BEB81FC8198
:104BC000918380838F859889009731F0EF85F889EC
:104BD0008B819C81918380830FB6F8940F92809192
:104BE000A0078F5F8093A00780919D0790919E07FB
:104BF000009769F48B819C8190939E0780939D0719
:104C00008091A0078130A9F40E942B2C12C08091C2
:104C1000A407882371F4E0919D07F0919E0796897F
:104C20008E85891730F08B819C8190939E078093AD
:104C30009D078091A8078F5F8093A807EB81FC8177
:104C400096898091A307891728F4EB81FC818689D6
:104C50008093A307EB81FC818689282F30E0C9016E
:104C6000880F991F880F991F880F991F820F931F14
:104C7000AC014655584F8B819C819C012E5F3F4F64
:104C8000CA01B9010E948E1A81E08D830F900FBE78
:104C900002C08FEF8D838D81813071F48091A407E4
:104CA000882351F0E0919D07F0919E0796898E85AB
:104CB000981710F40E94491D8D8164960FB6F894E0
:104CC000DEBF0FBECDBFCF91DF911F910F91FF903F
:104CD000EF90DF90CF90BF90AF900895DF93CF9388
:104CE00000D000D000D0CDB7DEB79C838B830FB649
:104CF000F8940F928B819C81009739F480919D07E5
:104D000090919E079E838D8304C08B819C819E839E
:104D10008D838D819E819A83898389819A81029670
:104D20000E943E1BE981FA8184899589009729F0C8
:104D300089819A810C960E943E1B89819A819C01EF
:104D40002E5F3F4F8DEE97E0B9010E948E1A809141
:104D50009F078F5F80939F078091A8078F5F809345
:104D6000A8070F900FBE8091A407882399F0209187
:104D70009D0730919E0789819A818217930719F4C4
:104D80000E94491D07C00FB6F8940F920E944A2D49
:104D90000F900FBE26960FB6F894DEBF0FBECDBFA4
:104DA000CF91DF910895DF93CF93CDB7DEB72A97E8
:104DB0000FB6F894DEBF0FBECDBF98878F837A877A
:104DC00069871B820E94BF278091A1079091A2074B
:104DD0009A838983EF81F8852081318189859A853D
:104DE000820F931F9E838D83EF81F885208131810F
:104DF00089819A818217930798F4EF81F885208141
:104E000031818D819E8182179307E0F42D813E814F
:104E100089819A8182179307A8F481E08B8312C05D
:104E2000EF81F885208131818D819E8182179307E2
:104E300038F02D813E8189819A818217930710F481
:104E400081E08B83EF81F8858D819E8191838083C2
:104E50008B81882359F080919D0790919E0702963F
:104E60000E943E1B8D819E810E94A72C0E94CB2711
:104E70008C838C81882311F40E94491D2A960FB6D9
:104E8000F894DEBF0FBECDBFCF91DF910895DF93C1
:104E9000CF9300D000D00F92CDB7DEB79D838C8327
:104EA00019828C819D810097D1F00E94BF272091AB
:104EB000A1073091A2078C819D81820F931F9B8354
:104EC0008A8380919D0790919E0702960E943E1BC7
:104ED0008A819B810E94A72C0E94CB27898389818C
:104EE000882311F40E94491D0F900F900F900F908E
:104EF0000F90CF91DF910895AF92BF92CF92DF9242
:104F0000EF92FF920F93DF93CF930F92CDB7DEB75F
:104F100088EA9BE224E431E0B90145E550E020E075
:104F200030E000E0EE24FF24CC24DD24AA24BB24BE
:104F30000E948D2589838981813051F4F89481E024
:104F40008093A4071092A2071092A1070E940D1D42
:104F50000F90CF91DF910F91FF90EF90DF90CF9066
:104F6000BF90AF900895DF93CF93CDB7DEB7F8949D
:104F70001092A4070E94421DCF91DF910895DF9304
:104F8000CF93CDB7DEB78091A9078F5F8093A90734
:104F9000CF91DF910895DF93CF9300D00F92CDB7DB
:104FA000DEB719820FB6F8940F928091A90781504D
:104FB0008093A9078091A907882309F06DC080918B
:104FC000A007882309F468C045C0E091E907F09183
:104FD000EA07868197819B838A838A819B810C96CD
:104FE0000E943E1B8A819B8102960E943E1BEA81A1
:104FF000FB8196898091A307891728F4EA81FB81B8
:1050000086898093A307EA81FB818689282F30E077
:10501000C901880F991F880F991F880F991F820F48
:10502000931FAC014655584F8A819B819C012E5F8E
:105030003F4FCA01B9010E948E1AEA81FB8196890D
:10504000E0919D07F0919E078689981718F081E0FE
:105050008093A6078091E407882309F0B6CF80915A
:10506000A507882389F00CC00E948A28882319F09C
:1050700081E08093A6078091A50781508093A507C2
:105080008091A507882381F78091A607813021F4BC
:1050900081E089830E94491D0F900FBE89810F9086
:1050A0000F900F90CF91DF910895DF93CF9300D0B1
:1050B000CDB7DEB70FB6F8940F928091A10790910B
:1050C000A2079A8389830F900FBE89819A810F90DE
:1050D0000F90CF91DF910895DF93CF9300D00F927F
:1050E000CDB7DEB719828091A1079091A2079B836B
:1050F0008A838A819B810F900F900F90CF91DF91CF
:105100000895DF93CF93CDB7DEB78091A007CF91FD
:10511000DF910895DF93CF93CDB7DEB729970FB610
:10512000F894DEBF0FBECDBF1D828091A9078823F2
:1051300009F0C2C08091A1079091A20701969093B7
:10514000A2078093A1078091A1079091A2079C8359
:105150008B838B819C810097D9F48091E00790919B
:10516000E1079A8389838091E2079091E307909306
:10517000E1078093E00789819A819093E307809308
:10518000E2078091A7078F5F8093A7070E944A2DAF
:1051900020917C0130917D018B819C818217930746
:1051A00008F471C0E091E007F091E1078081882365
:1051B00039F48FEF9FEF90937D0180937C0163C062
:1051C000E091E007F091E1070580F681E02D86810E
:1051D000978199878887E885F985828193819F8364
:1051E0008E832B813C818E819F812817390738F46B
:1051F0008E819F8190937D0180937C0144C088853E
:10520000998502960E943E1BE885F98584899589D7
:10521000009729F0888599850C960E943E1BE885A9
:10522000F98596898091A307891728F4E885F9857F
:1052300086898093A307E885F9858689282F30E041
:10524000C901880F991F880F991F880F991F820F16
:10525000931FAC014655584F888599859C012E5F58
:105260003F4FCA01B9010E948E1AE885F9859689D7
:10527000E0919D07F0919E078689981708F492CFD8
:1052800081E08D838FCFE0919D07F0919E07868905
:10529000282F30E0C901880F991F880F991F880FA8
:1052A000991F820F931FFC01E655F84F80818230D1
:1052B00040F081E08D8305C08091A5078F5F8093CA
:1052C000A5078091A607882311F081E08D838D8149
:1052D00029960FB6F894DEBF0FBECDBFCF91DF91F8
:1052E0000895DF93CF9300D0CDB7DEB78091A907A3
:1052F000882321F081E08093A60757C01092A6076B
:1053000005C08091A30781508093A3078091A307D4
:10531000282F30E0C901880F991F880F991F880F27
:10532000991F820F931FFC01E655F84F8081882357
:1053300041F38091A307282F30E0C901880F991FFE
:10534000880F991F880F991F820F931F8655984FBA
:105350009A838983E981FA810180F281E02D82813B
:105360009381E981FA8192838183E981FA812181A4
:10537000328189819A8103962817390759F4E98186
:10538000FA810180F281E02D82819381E981FA81A5
:1053900092838183E981FA810180F281E02D868107
:1053A000978190939E0780939D070F900F90CF91C8
:1053B000DF910895DF93CF9300D000D000D0CDB718
:1053C000DEB79C838B837E836D8380919D07909154
:1053D0009E079C01245F3F4F8B819C81B9010E94F5
:1053E000D21A80919D0790919E0702960E943E1BC3
:1053F0002091A1073091A2078D819E81820F931F7A
:105400009A83898389819A810E94A72C26960FB658
:10541000F894DEBF0FBECDBFCF91DF910895DF932B
:10542000CF93CDB7DEB728970FB6F894DEBF0FBE87
:10543000CDBF9C838B837E836D8358874F83E091A0
:105440009D07F0919E078D819E8190689587848746
:1054500080919D0790919E079C01245F3F4F8B8117
:105460009C81B9010E948E1A80919D0790919E07A0
:1054700002960E943E1B2091A1073091A2078F81C6
:105480009885820F931F9A83898389819A810E94CC
:10549000A72C28960FB6F894DEBF0FBECDBFCF91D4
:1054A000DF910895DF93CF9300D000D00F92CDB756
:1054B000DEB79D838C83EC81FD810580F681E02D34
:1054C000868197819B838A838A819B810C960E9427
:1054D0003E1B8091A907882361F58A819B810296F2
:1054E0000E943E1BEA81FB8196898091A307891760
:1054F00028F4EA81FB8186898093A307EA81FB81F6
:105500008689282F30E0C901880F991F880F991FBD
:10551000880F991F820F931FAC014655584F8A81FF
:105520009B819C012E5F3F4FCA01B9010E948E1AD8
:105530000AC08A819B819C01245F3F4F84EE97E0E3
:10554000B9010E948E1AEA81FB819689E0919D073C
:10555000F0919E078689891730F481E0898381E084
:105560008093A60701C0198289810F900F900F9038
:105570000F900F90CF91DF910895DF93CF93CDB728
:10558000DEB727970FB6F894DEBF0FBECDBF9D8361
:105590008C837F836E838E819F819068EC81FD81F7
:1055A00091838083EC81FD81868197819B838A83AF
:1055B0008C819D810E943E1B8A819B8102960E9464
:1055C0003E1BEA81FB8196898091A307891728F405
:1055D000EA81FB8186898093A307EA81FB81868922
:1055E000282F30E0C901880F991F880F991F880F55
:1055F000991F820F931FAC014655584F8A819B819A
:105600009C012E5F3F4FCA01B9010E948E1AEA81A8
:10561000FB819689E0919D07F0919E078689891705
:1056200030F481E0898381E08093A60701C019826C
:10563000898127960FB6F894DEBF0FBECDBFCF91FC
:10564000DF910895DF93CF9300D0CDB7DEB79A8373
:1056500089838091A707E981FA8180838091A107DE
:105660009091A207E981FA81928381830F900F9034
:10567000CF91DF910895DF93CF93CDB7DEB7279712
:105680000FB6F894DEBF0FBECDBF9D838C837F83A2
:105690006E830FB6F8940F928091A1079091A207A4
:1056A0009A838983EC81FD8190818091A707981767
:1056B00061F0EC81FD812181328189819A8182179B
:1056C000930718F081E08B832DC0EC81FD8121814F
:1056D000328189819A81AC01421B530B9A01EE8180
:1056E000FF818081918128173907D0F4EE81FF81F5
:1056F00040815181EC81FD812181328189819A81B2
:10570000B901681B790BCB01840F951FEE81FF81D6
:10571000918380838C819D810E94222B1B8202C0F9
:1057200081E08B830F900FBE8B8127960FB6F89484
:10573000DEBF0FBECDBFCF91DF910895DF93CF9332
:10574000CDB7DEB781E08093A607CF91DF910895B2
:10575000DF93CF9300D0CDB7DEB79A8389830E94C1
:10576000682C8091AA078230D0F30E94491DF7CFA0
:105770000F931F93DF93CF93CDB7DEB72A970FB662
:10578000F894DEBF0FBECDBF9B838A837D836C837D
:105790004E8338872F831A870987198221C0898110
:1057A000482F50E08981282F30E08C819D81FC01B9
:1057B000E20FF31F20818A819B81840F951FFC01DA
:1057C000799620838981282F30E08C819D81FC018E
:1057D000E20FF31F8081882331F089818F5F8983F5
:1057E00089818431E0F2EA81FB8114A68E818430C4
:1057F00010F083E08E83EA81FB818E81868B8A8123
:105800009B8102960E947E1A8A819B810C960E943F
:105810007E1AEA81FB818A819B81918780878E81B4
:10582000282F30E084E090E0821B930BEA81FB811B
:1058300095878487EA81FB818A819B81938B828B08
:105840002A960FB6F894DEBF0FBECDBFCF91DF9181
:105850001F910F910895DF93CF930F92CDB7DEB7CD
:10586000198213C08981282F30E0C901880F991F40
:10587000880F991F880F991F820F931F8655984F85
:105880000E94541A89818F5F89838981843050F303
:105890008EEC97E00E94541A87ED97E00E94541A0C
:1058A00084EE97E00E94541A8DEE97E00E94541AFD
:1058B0008EEC97E09093E1078093E00787ED97E007
:1058C0009093E3078093E2070F90CF91DF910895C3
:1058D000DF93CF9300D00F92CDB7DEB72EC00E94DA
:1058E000BF278091ED071B82882311F481E08B8311
:1058F0000E94CB278B81882301F50FB6F8940F9275
:10590000E091F207F091F307868197819A8389836A
:1059100089819A8102960E943E1B8091A007815046
:105920008093A00780919F07815080939F070F90DD
:105930000FBE89819A810E94342D80919F07882310
:1059400071F60F900F900F90CF91DF910895DF9334
:10595000CF9300D0CDB7DEB79A838983E0919D07BE
:10596000F0919E0789819A81938382832091A10778
:105970003091A20789819A818217930770F48091F0
:10598000E2079091E30720919D0730919E072E5FDB
:105990003F4FB9010E94D21A1EC04091E0075091BA
:1059A000E10780919D0790919E079C012E5F3F4FDC
:1059B000CA01B9010E94D21A20917C0130917D0167
:1059C00089819A818217930730F489819A81909313
:1059D0007D0180937C010F900F90CF91DF9108950E
:1059E000DF93CF93CDB7DEB728970FB6F894DEBF1D
:1059F0000FBECDBF9C838B837E836D838DE290E051
:105A00000E9406199A83898389819A81009709F1F6
:105A10008D819E81009739F48B819C810E940619AB
:105A200098878F8304C08D819E8198878F83E981B9
:105A3000FA818F819885908F878BE981FA81878998
:105A4000908D009731F489819A810E945C191A82A5
:105A5000198289819A8128960FB6F894DEBF0FBE0D
:105A6000CDBFCF91DF910895DF93CF9300D0CDB715
:105A7000DEB79A838983E981FA818789908D0E94B4
:105A80005C1989819A810E945C190F900F90CF91C7
:105A9000DF910895DF93CF9300D0CDB7DEB7E091CB
:105AA000E007F091E1078081882339F48FEF9FEFC1
:105AB00090937D0180937C0113C0E091E007F09109
:105AC000E1070580F681E02D868197819A8389839D
:105AD000E981FA818281938190937D0180937C0199
